{
  "contractName": "Todos",
  "abi": [
    {
      "constant": false,
      "inputs": [
        {
          "name": "todo",
          "type": "bytes32"
        }
      ],
      "name": "addTodo",
      "outputs": [],
      "payable": false,
      "stateMutability": "nonpayable",
      "type": "function",
      "signature": "0xda2f6460"
    },
    {
      "constant": true,
      "inputs": [],
      "name": "getTodos",
      "outputs": [
        {
          "name": "",
          "type": "bytes32[]"
        }
      ],
      "payable": false,
      "stateMutability": "view",
      "type": "function",
      "signature": "0xc33926cb"
    }
  ],
  "bytecode": "0x608060405234801561001057600080fd5b506101ab806100206000396000f3fe60806040526004361061004c576000357c0100000000000000000000000000000000000000000000000000000000900463ffffffff168063c33926cb14610051578063da2f6460146100bd575b600080fd5b34801561005d57600080fd5b506100666100f8565b6040518080602001828103825283818151815260200191508051906020019060200280838360005b838110156100a957808201518184015260208101905061008e565b505050509050019250505060405180910390f35b3480156100c957600080fd5b506100f6600480360360208110156100e057600080fd5b8101908080359060200190929190505050610150565b005b6060600080548060200260200160405190810160405280929190818152602001828054801561014657602002820191906000526020600020905b815481526020019060010190808311610132575b5050505050905090565b60008190806001815401808255809150509060018203906000526020600020016000909192909190915055505056fea165627a7a7230582090bf1dd1f41fa5d74d43e7ff6365e34baa4dfdb94acc97357a80b1153bec77ec0029",
  "source": "pragma solidity ^0.5.0;\n\ncontract Todos {\n    bytes32[] todos;\n\n    function addTodo(bytes32 todo) public {\n        todos.push(todo);\n    }\n\n    function getTodos() public view returns (bytes32[] memory) {\n        return todos;\n    }\n}",
  "sourcePath": "/Users/shuxuanliu/Github/truffle-react/contracts/Todos.sol",
  "compiler": {
    "name": "solc",
    "version": "0.5.0+commit.1d4f565a.Emscripten.clang"
  },
  "schemaVersion": "3.0.6",
  "updatedAt": "2019-04-05T04:34:08.350Z",
  "devdoc": {
    "methods": {}
  },
  "userdoc": {
    "methods": {}
  }
}